{
  "_format": "hh-sol-artifact-1",
  "contractName": "TokenConfig",
  "sourceName": "contracts/libraries/TokenConfig.sol",
  "abi": [
    {
      "inputs": [],
      "name": "CELO_ADDRESS",
      "outputs": [
        {
          "internalType": "address",
          "name": "",
          "type": "address"
        }
      ],
      "stateMutability": "view",
      "type": "function"
    },
    {
      "inputs": [],
      "name": "CUSD_ADDRESS",
      "outputs": [
        {
          "internalType": "address",
          "name": "",
          "type": "address"
        }
      ],
      "stateMutability": "view",
      "type": "function"
    },
    {
      "inputs": [],
      "name": "USDC_ADDRESS",
      "outputs": [
        {
          "internalType": "address",
          "name": "",
          "type": "address"
        }
      ],
      "stateMutability": "view",
      "type": "function"
    }
  ],
  "bytecode": "0x60d9610039600b82828239805160001a60731461002c57634e487b7160e01b600052600060045260246000fd5b30600052607381538281f3fe730000000000000000000000000000000000000000301460806040526004361060475760003560e01c80632a4b914214604c578063465c66e914606f578063bb09d9b7146089575b600080fd5b6053600081565b6040516001600160a01b03909116815260200160405180910390f35b605373874069fa1eb16d44d622f2e0ca25eea172369bc181565b60537341f4c5e67e9ecf8c2c53d9b25c4c5b4f8c26b6e88156fea264697066735822122003f499d16f67cffe74c29b49bbf8b134aa046f63b2e710799fb25e23ab9a378564736f6c63430008130033",
  "linkReferences": {},
  "deployedLinkReferences": {}
}