{
  "_format": "hh-sol-artifact-1",
  "contractName": "MultiTokenVault",
  "sourceName": "contracts/vault/MultiTokenVault.sol",
  "abi": [
    {
      "inputs": [
        {
          "internalType": "string",
          "name": "name",
          "type": "string"
        },
        {
          "internalType": "string",
          "name": "symbol",
          "type": "string"
        },
        {
          "internalType": "address",
          "name": "_strategy",
          "type": "address"
        }
      ],
      "stateMutability": "nonpayable",
      "type": "constructor"
    },
    {
      "anonymous": false,
      "inputs": [
        {
          "indexed": true,
          "internalType": "address",
          "name": "owner",
          "type": "address"
        },
        {
          "indexed": true,
          "internalType": "address",
          "name": "spender",
          "type": "address"
        },
        {
          "indexed": false,
          "internalType": "uint256",
          "name": "value",
          "type": "uint256"
        }
      ],
      "name": "Approval",
      "type": "event"
    },
    {
      "anonymous": false,
      "inputs": [
        {
          "indexed": true,
          "internalType": "address",
          "name": "user",
          "type": "address"
        },
        {
          "indexed": true,
          "internalType": "address",
          "name": "token",
          "type": "address"
        },
        {
          "indexed": false,
          "internalType": "uint256",
          "name": "amount",
          "type": "uint256"
        },
        {
          "indexed": false,
          "internalType": "uint256",
          "name": "shares",
          "type": "uint256"
        }
      ],
      "name": "Deposit",
      "type": "event"
    },
    {
      "anonymous": false,
      "inputs": [
        {
          "indexed": true,
          "internalType": "address",
          "name": "user",
          "type": "address"
        },
        {
          "indexed": true,
          "internalType": "address",
          "name": "token",
          "type": "address"
        },
        {
          "indexed": false,
          "internalType": "uint256",
          "name": "amount",
          "type": "uint256"
        }
      ],
      "name": "EmergencyWithdraw",
      "type": "event"
    },
    {
      "anonymous": false,
      "inputs": [
        {
          "indexed": true,
          "internalType": "address",
          "name": "previousOwner",
          "type": "address"
        },
        {
          "indexed": true,
          "internalType": "address",
          "name": "newOwner",
          "type": "address"
        }
      ],
      "name": "OwnershipTransferred",
      "type": "event"
    },
    {
      "anonymous": false,
      "inputs": [
        {
          "indexed": false,
          "internalType": "address",
          "name": "account",
          "type": "address"
        }
      ],
      "name": "Paused",
      "type": "event"
    },
    {
      "anonymous": false,
      "inputs": [
        {
          "indexed": true,
          "internalType": "address",
          "name": "oldStrategy",
          "type": "address"
        },
        {
          "indexed": true,
          "internalType": "address",
          "name": "newStrategy",
          "type": "address"
        }
      ],
      "name": "StrategyUpdated",
      "type": "event"
    },
    {
      "anonymous": false,
      "inputs": [
        {
          "indexed": true,
          "internalType": "address",
          "name": "token",
          "type": "address"
        },
        {
          "indexed": false,
          "internalType": "bool",
          "name": "isWhitelisted",
          "type": "bool"
        }
      ],
      "name": "TokenWhitelisted",
      "type": "event"
    },
    {
      "anonymous": false,
      "inputs": [
        {
          "indexed": true,
          "internalType": "address",
          "name": "from",
          "type": "address"
        },
        {
          "indexed": true,
          "internalType": "address",
          "name": "to",
          "type": "address"
        },
        {
          "indexed": false,
          "internalType": "uint256",
          "name": "value",
          "type": "uint256"
        }
      ],
      "name": "Transfer",
      "type": "event"
    },
    {
      "anonymous": false,
      "inputs": [
        {
          "indexed": false,
          "internalType": "address",
          "name": "account",
          "type": "address"
        }
      ],
      "name": "Unpaused",
      "type": "event"
    },
    {
      "anonymous": false,
      "inputs": [
        {
          "indexed": true,
          "internalType": "address",
          "name": "user",
          "type": "address"
        },
        {
          "indexed": true,
          "internalType": "address",
          "name": "token",
          "type": "address"
        },
        {
          "indexed": false,
          "internalType": "uint256",
          "name": "shares",
          "type": "uint256"
        },
        {
          "indexed": false,
          "internalType": "uint256",
          "name": "amount",
          "type": "uint256"
        }
      ],
      "name": "Withdraw",
      "type": "event"
    },
    {
      "inputs": [],
      "name": "MAX_FEE",
      "outputs": [
        {
          "internalType": "uint256",
          "name": "",
          "type": "uint256"
        }
      ],
      "stateMutability": "view",
      "type": "function"
    },
    {
      "inputs": [
        {
          "internalType": "address",
          "name": "owner",
          "type": "address"
        },
        {
          "internalType": "address",
          "name": "spender",
          "type": "address"
        }
      ],
      "name": "allowance",
      "outputs": [
        {
          "internalType": "uint256",
          "name": "",
          "type": "uint256"
        }
      ],
      "stateMutability": "view",
      "type": "function"
    },
    {
      "inputs": [
        {
          "internalType": "address",
          "name": "spender",
          "type": "address"
        },
        {
          "internalType": "uint256",
          "name": "amount",
          "type": "uint256"
        }
      ],
      "name": "approve",
      "outputs": [
        {
          "internalType": "bool",
          "name": "",
          "type": "bool"
        }
      ],
      "stateMutability": "nonpayable",
      "type": "function"
    },
    {
      "inputs": [
        {
          "internalType": "address",
          "name": "account",
          "type": "address"
        }
      ],
      "name": "balanceOf",
      "outputs": [
        {
          "internalType": "uint256",
          "name": "",
          "type": "uint256"
        }
      ],
      "stateMutability": "view",
      "type": "function"
    },
    {
      "inputs": [
        {
          "internalType": "address",
          "name": "token",
          "type": "address"
        },
        {
          "internalType": "uint256",
          "name": "shares",
          "type": "uint256"
        }
      ],
      "name": "convertToAssets",
      "outputs": [
        {
          "internalType": "uint256",
          "name": "",
          "type": "uint256"
        }
      ],
      "stateMutability": "view",
      "type": "function"
    },
    {
      "inputs": [
        {
          "internalType": "address",
          "name": "token",
          "type": "address"
        },
        {
          "internalType": "uint256",
          "name": "assets",
          "type": "uint256"
        }
      ],
      "name": "convertToShares",
      "outputs": [
        {
          "internalType": "uint256",
          "name": "",
          "type": "uint256"
        }
      ],
      "stateMutability": "view",
      "type": "function"
    },
    {
      "inputs": [],
      "name": "decimals",
      "outputs": [
        {
          "internalType": "uint8",
          "name": "",
          "type": "uint8"
        }
      ],
      "stateMutability": "view",
      "type": "function"
    },
    {
      "inputs": [
        {
          "internalType": "address",
          "name": "spender",
          "type": "address"
        },
        {
          "internalType": "uint256",
          "name": "subtractedValue",
          "type": "uint256"
        }
      ],
      "name": "decreaseAllowance",
      "outputs": [
        {
          "internalType": "bool",
          "name": "",
          "type": "bool"
        }
      ],
      "stateMutability": "nonpayable",
      "type": "function"
    },
    {
      "inputs": [
        {
          "internalType": "address",
          "name": "token",
          "type": "address"
        },
        {
          "internalType": "uint256",
          "name": "amount",
          "type": "uint256"
        }
      ],
      "name": "deposit",
      "outputs": [],
      "stateMutability": "payable",
      "type": "function"
    },
    {
      "inputs": [],
      "name": "depositFee",
      "outputs": [
        {
          "internalType": "uint256",
          "name": "",
          "type": "uint256"
        }
      ],
      "stateMutability": "view",
      "type": "function"
    },
    {
      "inputs": [
        {
          "internalType": "address",
          "name": "token",
          "type": "address"
        },
        {
          "internalType": "uint256",
          "name": "amount",
          "type": "uint256"
        }
      ],
      "name": "emergencyWithdraw",
      "outputs": [],
      "stateMutability": "nonpayable",
      "type": "function"
    },
    {
      "inputs": [
        {
          "internalType": "address",
          "name": "token",
          "type": "address"
        }
      ],
      "name": "getAPY",
      "outputs": [
        {
          "internalType": "uint256",
          "name": "",
          "type": "uint256"
        }
      ],
      "stateMutability": "view",
      "type": "function"
    },
    {
      "inputs": [
        {
          "internalType": "address",
          "name": "token",
          "type": "address"
        }
      ],
      "name": "getTokenInfo",
      "outputs": [
        {
          "components": [
            {
              "internalType": "address",
              "name": "tokenAddress",
              "type": "address"
            },
            {
              "internalType": "string",
              "name": "symbol",
              "type": "string"
            },
            {
              "internalType": "string",
              "name": "name",
              "type": "string"
            },
            {
              "internalType": "uint8",
              "name": "decimals",
              "type": "uint8"
            },
            {
              "internalType": "bool",
              "name": "isNative",
              "type": "bool"
            },
            {
              "internalType": "uint256",
              "name": "maxDeposit",
              "type": "uint256"
            },
            {
              "internalType": "uint256",
              "name": "minDeposit",
              "type": "uint256"
            },
            {
              "internalType": "bool",
              "name": "isActive",
              "type": "bool"
            }
          ],
          "internalType": "struct TokenConfig.TokenInfo",
          "name": "",
          "type": "tuple"
        }
      ],
      "stateMutability": "pure",
      "type": "function"
    },
    {
      "inputs": [
        {
          "internalType": "address",
          "name": "spender",
          "type": "address"
        },
        {
          "internalType": "uint256",
          "name": "addedValue",
          "type": "uint256"
        }
      ],
      "name": "increaseAllowance",
      "outputs": [
        {
          "internalType": "bool",
          "name": "",
          "type": "bool"
        }
      ],
      "stateMutability": "nonpayable",
      "type": "function"
    },
    {
      "inputs": [],
      "name": "name",
      "outputs": [
        {
          "internalType": "string",
          "name": "",
          "type": "string"
        }
      ],
      "stateMutability": "view",
      "type": "function"
    },
    {
      "inputs": [],
      "name": "owner",
      "outputs": [
        {
          "internalType": "address",
          "name": "",
          "type": "address"
        }
      ],
      "stateMutability": "view",
      "type": "function"
    },
    {
      "inputs": [],
      "name": "pause",
      "outputs": [],
      "stateMutability": "nonpayable",
      "type": "function"
    },
    {
      "inputs": [],
      "name": "paused",
      "outputs": [
        {
          "internalType": "bool",
          "name": "",
          "type": "bool"
        }
      ],
      "stateMutability": "view",
      "type": "function"
    },
    {
      "inputs": [],
      "name": "performanceFee",
      "outputs": [
        {
          "internalType": "uint256",
          "name": "",
          "type": "uint256"
        }
      ],
      "stateMutability": "view",
      "type": "function"
    },
    {
      "inputs": [],
      "name": "renounceOwnership",
      "outputs": [],
      "stateMutability": "nonpayable",
      "type": "function"
    },
    {
      "inputs": [
        {
          "internalType": "uint256",
          "name": "_depositFee",
          "type": "uint256"
        },
        {
          "internalType": "uint256",
          "name": "_withdrawalFee",
          "type": "uint256"
        },
        {
          "internalType": "uint256",
          "name": "_performanceFee",
          "type": "uint256"
        }
      ],
      "name": "setFees",
      "outputs": [],
      "stateMutability": "nonpayable",
      "type": "function"
    },
    {
      "inputs": [
        {
          "internalType": "address",
          "name": "token",
          "type": "address"
        },
        {
          "internalType": "bool",
          "name": "isWhitelisted",
          "type": "bool"
        }
      ],
      "name": "setTokenWhitelist",
      "outputs": [],
      "stateMutability": "nonpayable",
      "type": "function"
    },
    {
      "inputs": [],
      "name": "strategy",
      "outputs": [
        {
          "internalType": "address",
          "name": "",
          "type": "address"
        }
      ],
      "stateMutability": "view",
      "type": "function"
    },
    {
      "inputs": [],
      "name": "symbol",
      "outputs": [
        {
          "internalType": "string",
          "name": "",
          "type": "string"
        }
      ],
      "stateMutability": "view",
      "type": "function"
    },
    {
      "inputs": [
        {
          "internalType": "address",
          "name": "token",
          "type": "address"
        }
      ],
      "name": "totalAssets",
      "outputs": [
        {
          "internalType": "uint256",
          "name": "",
          "type": "uint256"
        }
      ],
      "stateMutability": "view",
      "type": "function"
    },
    {
      "inputs": [
        {
          "internalType": "address",
          "name": "token",
          "type": "address"
        }
      ],
      "name": "totalShares",
      "outputs": [
        {
          "internalType": "uint256",
          "name": "",
          "type": "uint256"
        }
      ],
      "stateMutability": "view",
      "type": "function"
    },
    {
      "inputs": [],
      "name": "totalSupply",
      "outputs": [
        {
          "internalType": "uint256",
          "name": "",
          "type": "uint256"
        }
      ],
      "stateMutability": "view",
      "type": "function"
    },
    {
      "inputs": [
        {
          "internalType": "address",
          "name": "",
          "type": "address"
        }
      ],
      "name": "totalTokenAssets",
      "outputs": [
        {
          "internalType": "uint256",
          "name": "",
          "type": "uint256"
        }
      ],
      "stateMutability": "view",
      "type": "function"
    },
    {
      "inputs": [
        {
          "internalType": "address",
          "name": "",
          "type": "address"
        }
      ],
      "name": "totalTokenShares",
      "outputs": [
        {
          "internalType": "uint256",
          "name": "",
          "type": "uint256"
        }
      ],
      "stateMutability": "view",
      "type": "function"
    },
    {
      "inputs": [
        {
          "internalType": "address",
          "name": "to",
          "type": "address"
        },
        {
          "internalType": "uint256",
          "name": "amount",
          "type": "uint256"
        }
      ],
      "name": "transfer",
      "outputs": [
        {
          "internalType": "bool",
          "name": "",
          "type": "bool"
        }
      ],
      "stateMutability": "nonpayable",
      "type": "function"
    },
    {
      "inputs": [
        {
          "internalType": "address",
          "name": "from",
          "type": "address"
        },
        {
          "internalType": "address",
          "name": "to",
          "type": "address"
        },
        {
          "internalType": "uint256",
          "name": "amount",
          "type": "uint256"
        }
      ],
      "name": "transferFrom",
      "outputs": [
        {
          "internalType": "bool",
          "name": "",
          "type": "bool"
        }
      ],
      "stateMutability": "nonpayable",
      "type": "function"
    },
    {
      "inputs": [
        {
          "internalType": "address",
          "name": "newOwner",
          "type": "address"
        }
      ],
      "name": "transferOwnership",
      "outputs": [],
      "stateMutability": "nonpayable",
      "type": "function"
    },
    {
      "inputs": [],
      "name": "unpause",
      "outputs": [],
      "stateMutability": "nonpayable",
      "type": "function"
    },
    {
      "inputs": [
        {
          "internalType": "address",
          "name": "newStrategy",
          "type": "address"
        }
      ],
      "name": "updateStrategy",
      "outputs": [],
      "stateMutability": "nonpayable",
      "type": "function"
    },
    {
      "inputs": [
        {
          "internalType": "address",
          "name": "user",
          "type": "address"
        },
        {
          "internalType": "address",
          "name": "token",
          "type": "address"
        }
      ],
      "name": "userAssetBalance",
      "outputs": [
        {
          "internalType": "uint256",
          "name": "",
          "type": "uint256"
        }
      ],
      "stateMutability": "view",
      "type": "function"
    },
    {
      "inputs": [
        {
          "internalType": "address",
          "name": "",
          "type": "address"
        },
        {
          "internalType": "address",
          "name": "",
          "type": "address"
        }
      ],
      "name": "userTokenShares",
      "outputs": [
        {
          "internalType": "uint256",
          "name": "",
          "type": "uint256"
        }
      ],
      "stateMutability": "view",
      "type": "function"
    },
    {
      "inputs": [
        {
          "internalType": "address",
          "name": "user",
          "type": "address"
        },
        {
          "internalType": "address",
          "name": "token",
          "type": "address"
        }
      ],
      "name": "userTokenSharesBalance",
      "outputs": [
        {
          "internalType": "uint256",
          "name": "",
          "type": "uint256"
        }
      ],
      "stateMutability": "view",
      "type": "function"
    },
    {
      "inputs": [
        {
          "internalType": "address",
          "name": "",
          "type": "address"
        }
      ],
      "name": "whitelistedTokens",
      "outputs": [
        {
          "internalType": "bool",
          "name": "",
          "type": "bool"
        }
      ],
      "stateMutability": "view",
      "type": "function"
    },
    {
      "inputs": [
        {
          "internalType": "address",
          "name": "token",
          "type": "address"
        },
        {
          "internalType": "uint256",
          "name": "shares",
          "type": "uint256"
        }
      ],
      "name": "withdraw",
      "outputs": [],
      "stateMutability": "nonpayable",
      "type": "function"
    },
    {
      "inputs": [],
      "name": "withdrawalFee",
      "outputs": [
        {
          "internalType": "uint256",
          "name": "",
          "type": "uint256"
        }
      ],
      "stateMutability": "view",
      "type": "function"
    },
    {
      "stateMutability": "payable",
      "type": "receive"
    }
  ],
  "bytecode": "0x60806040526000600c556000600d5560c8600e553480156200002057600080fd5b5060405162002d2a38038062002d2a8339810160408190526200004391620003a2565b82826003620000538382620004be565b506004620000628282620004be565b50506001600555506006805460ff191690556200007f3362000192565b600b80546001600160a01b0319166001600160a01b0383161790556000620000a6620001ec565b905060005b81518110156200018757600160076000848481518110620000d057620000d06200058a565b60200260200101516001600160a01b03166001600160a01b0316815260200190815260200160002060006101000a81548160ff0219169083151502179055508181815181106200012457620001246200058a565b60200260200101516001600160a01b03167fef81a9943b96c8df4ef243401c9bf5159146166211356898b52d382086168d9260016040516200016a911515815260200190565b60405180910390a2806200017e81620005a0565b915050620000ab565b5050505050620005c8565b600680546001600160a01b03838116610100818102610100600160a81b031985161790945560405193909204169182907f8be0079c531659141344cd1fd0a4f28419497f9722a3daafe3b4186f6b6457e090600090a35050565b604080516003808252608082019092526060916000919060208201848036833701905050905073874069fa1eb16d44d622f2e0ca25eea172369bc1816000815181106200023d576200023d6200058a565b60200260200101906001600160a01b031690816001600160a01b0316815250507341f4c5e67e9ecf8c2c53d9b25c4c5b4f8c26b6e8816001815181106200028857620002886200058a565b60200260200101906001600160a01b031690816001600160a01b031681525050600081600281518110620002c057620002c06200058a565b6001600160a01b0390921660209283029190910190910152919050565b634e487b7160e01b600052604160045260246000fd5b600082601f8301126200030557600080fd5b81516001600160401b0380821115620003225762000322620002dd565b604051601f8301601f19908116603f011681019082821181831017156200034d576200034d620002dd565b816040528381526020925086838588010111156200036a57600080fd5b600091505b838210156200038e57858201830151818301840152908201906200036f565b600093810190920192909252949350505050565b600080600060608486031215620003b857600080fd5b83516001600160401b0380821115620003d057600080fd5b620003de87838801620002f3565b94506020860151915080821115620003f557600080fd5b506200040486828701620002f3565b604086015190935090506001600160a01b03811681146200042457600080fd5b809150509250925092565b600181811c908216806200044457607f821691505b6020821081036200046557634e487b7160e01b600052602260045260246000fd5b50919050565b601f821115620004b957600081815260208120601f850160051c81016020861015620004945750805b601f850160051c820191505b81811015620004b557828155600101620004a0565b5050505b505050565b81516001600160401b03811115620004da57620004da620002dd565b620004f281620004eb84546200042f565b846200046b565b602080601f8311600181146200052a5760008415620005115750858301515b600019600386901b1c1916600185901b178555620004b5565b600085815260208120601f198616915b828110156200055b578886015182559484019460019091019084016200053a565b50858210156200057a5787850151600019600388901b60f8161c191681555b5050505050600190811b01905550565b634e487b7160e01b600052603260045260246000fd5b600060018201620005c157634e487b7160e01b600052601160045260246000fd5b5060010190565b61275280620005d86000396000f3fe60806040526004361061023f5760003560e01c80638bc7e8c41161012e578063bf6b874e116100ab578063daf9c2101161006f578063daf9c21014610753578063dd62ed3e14610783578063f2fde38b146107a3578063f3e0ffbf146107c3578063f3fef3a3146107f957600080fd5b8063bf6b874e1461069b578063c4f9870b146106d1578063c9bcc97e146106f3578063cec10c1114610713578063daccaf631461073357600080fd5b80639b9f7107116100f25780639b9f7107146105ed578063a457c2d714610625578063a8c62e7614610645578063a9059cbb14610665578063bc063e1a1461068557600080fd5b80638bc7e8c4146105255780638da5cb5b1461053b5780638fb3850a1461057257806395ccea67146105b857806395d89b41146105d857600080fd5b80633f4ba83a116101bc5780636d69f707116101805780636d69f7071461048f57806370a08231146104af578063715018a6146104e55780638456cb59146104fa578063877887821461050f57600080fd5b80633f4ba83a1461041757806347e7ef241461042e57806350603df3146104415780635c975abb1461046157806367a527931461047957600080fd5b806323b872dd1161020357806323b872dd1461036e578063313ce5671461038e578063328c7a8e146103aa57806339509351146103d75780633e5541f1146103f757600080fd5b806306fdde0314610296578063095ea7b3146102c157806310f485f5146102f157806318160ddd1461032c5780631f69565f1461034157600080fd5b366102915760405162461bcd60e51b815260206004820152601d60248201527f557365206465706f7369742066756e6374696f6e20666f722043454c4f00000060448201526064015b60405180910390fd5b600080fd5b3480156102a257600080fd5b506102ab610819565b6040516102b89190612442565b60405180910390f35b3480156102cd57600080fd5b506102e16102dc36600461246c565b6108ab565b60405190151581526020016102b8565b3480156102fd57600080fd5b5061031e61030c366004612496565b600a6020526000908152604090205481565b6040519081526020016102b8565b34801561033857600080fd5b5060025461031e565b34801561034d57600080fd5b5061036161035c366004612496565b6108c5565b6040516102b891906124b1565b34801561037a57600080fd5b506102e1610389366004612557565b6108d6565b34801561039a57600080fd5b50604051601281526020016102b8565b3480156103b657600080fd5b5061031e6103c5366004612496565b60096020526000908152604090205481565b3480156103e357600080fd5b506102e16103f236600461246c565b6108fa565b34801561040357600080fd5b5061031e61041236600461246c565b61091c565b34801561042357600080fd5b5061042c610984565b005b61042c61043c36600461246c565b610996565b34801561044d57600080fd5b5061031e61045c36600461246c565b610e05565b34801561046d57600080fd5b5060065460ff166102e1565b34801561048557600080fd5b5061031e600c5481565b34801561049b57600080fd5b5061031e6104aa366004612593565b610e61565b3480156104bb57600080fd5b5061031e6104ca366004612496565b6001600160a01b031660009081526020819052604090205490565b3480156104f157600080fd5b5061042c610e9b565b34801561050657600080fd5b5061042c610ead565b34801561051b57600080fd5b5061031e600e5481565b34801561053157600080fd5b5061031e600d5481565b34801561054757600080fd5b5060065461010090046001600160a01b03165b6040516001600160a01b0390911681526020016102b8565b34801561057e57600080fd5b5061031e61058d366004612593565b6001600160a01b03918216600090815260086020908152604080832093909416825291909152205490565b3480156105c457600080fd5b5061042c6105d336600461246c565b610ebd565b3480156105e457600080fd5b506102ab61112d565b3480156105f957600080fd5b5061031e610608366004612593565b600860209081526000928352604080842090915290825290205481565b34801561063157600080fd5b506102e161064036600461246c565b61113c565b34801561065157600080fd5b50600b5461055a906001600160a01b031681565b34801561067157600080fd5b506102e161068036600461246c565b6111b7565b34801561069157600080fd5b5061031e6103e881565b3480156106a757600080fd5b5061031e6106b6366004612496565b6001600160a01b03166000908152600a602052604090205490565b3480156106dd57600080fd5b5061031e6106ec366004612496565b5061032090565b3480156106ff57600080fd5b5061042c61070e3660046125d4565b6111c5565b34801561071f57600080fd5b5061042c61072e36600461260b565b61122c565b34801561073f57600080fd5b5061042c61074e366004612496565b61132f565b34801561075f57600080fd5b506102e161076e366004612496565b60076020526000908152604090205460ff1681565b34801561078f57600080fd5b5061031e61079e366004612593565b6113df565b3480156107af57600080fd5b5061042c6107be366004612496565b61140a565b3480156107cf57600080fd5b5061031e6107de366004612496565b6001600160a01b031660009081526009602052604090205490565b34801561080557600080fd5b5061042c61081436600461246c565b611483565b60606003805461082890612637565b80601f016020809104026020016040519081016040528092919081815260200182805461085490612637565b80156108a15780601f10610876576101008083540402835291602001916108a1565b820191906000526020600020905b81548152906001019060200180831161088457829003601f168201915b5050505050905090565b6000336108b981858561185e565b60019150505b92915050565b6108cd6123a7565b6108bf82611983565b6000336108e4858285611c0c565b6108ef858585611c86565b506001949350505050565b6000336108b981858561090d83836113df565b6109179190612687565b61185e565b6001600160a01b0382166000908152600a602052604081205481036109425750806108bf565b6001600160a01b038316600090815260096020908152604080832054600a9092529091205461097d9190610977908590611e2a565b90611e36565b9392505050565b61098c611e42565b610994611ea2565b565b61099e611ef4565b6109a6611f4d565b6001600160a01b038216600090815260076020526040902054829060ff16610a085760405162461bcd60e51b8152602060048201526015602482015274151bdad95b881b9bdd081dda1a5d195b1a5cdd1959605a1b6044820152606401610288565b8160008111610a595760405162461bcd60e51b815260206004820152601d60248201527f416d6f756e74206d7573742062652067726561746572207468616e20300000006044820152606401610288565b6000610a6485611983565b90508060c00151841015610ab15760405162461bcd60e51b8152602060048201526014602482015273416d6f756e742062656c6f77206d696e696d756d60601b6044820152606401610288565b8060a00151841115610afc5760405162461bcd60e51b8152602060048201526014602482015273416d6f756e742061626f7665206d6178696d756d60601b6044820152606401610288565b83610b0686611f93565b15610b5757843414610b525760405162461bcd60e51b8152602060048201526015602482015274125b98dbdc9c9958dd0810d15313c8185b5bdd5b9d605a1b6044820152606401610288565b610bd0565b6040516323b872dd60e01b8152336004820152306024820152604481018690526001600160a01b038716906323b872dd906064016020604051808303816000875af1158015610baa573d6000803e3d6000fd5b505050506040513d601f19601f82011682018060405250810190610bce919061269a565b505b6000610bdc878361091c565b905060008111610c2e5760405162461bcd60e51b815260206004820152601d60248201527f536861726573206d7573742062652067726561746572207468616e20300000006044820152606401610288565b600c5415610c6f576000610c53612710610977600c5486611e2a90919063ffffffff16565b9050610c5f8382611fa8565b9250610c6b888461091c565b9150505b3360009081526008602090815260408083206001600160a01b038b168452909152902054610c9d9082611fb4565b3360009081526008602090815260408083206001600160a01b038c168452825280832093909355600990522054610cd49083611fb4565b6001600160a01b038816600090815260096020908152604080832093909355600a90522054610d039082611fb4565b6001600160a01b0388166000908152600a6020526040902055610d263382611fc0565b610d2f87611f93565b610dac57600b5460405163095ea7b360e01b81526001600160a01b039182166004820152602481018490529088169063095ea7b3906044016020604051808303816000875af1158015610d86573d6000803e3d6000fd5b505050506040513d601f19601f82011682018060405250810190610daa919061269a565b505b60408051838152602081018390526001600160a01b0389169133917fdcbc1c05240f31ff3ad067ef1ee35ce4997762752e3a095284754544f4c709d7910160405180910390a35050505050610e016001600555565b5050565b6001600160a01b0382166000908152600a60205260408120548103610e2c575060006108bf565b6001600160a01b0383166000908152600a602090815260408083205460099092529091205461097d9190610977908590611e2a565b6001600160a01b038083166000908152600860209081526040808320938516835292905290812054610e938382610e05565b949350505050565b610ea3611e42565b610994600061207f565b610eb5611e42565b6109946120d9565b610ec5612116565b3360009081526008602090815260408083206001600160a01b0386168452909152902054610f2d5760405162461bcd60e51b81526020600482015260156024820152744e6f2073686172657320746f20776974686472617760581b6044820152606401610288565b610f3682611f93565b15610fbe5780471015610f8b5760405162461bcd60e51b815260206004820152601960248201527f496e73756666696369656e742043454c4f2062616c616e6365000000000000006044820152606401610288565b604051339082156108fc029083906000818181858888f19350505050158015610fb8573d6000803e3d6000fd5b506110e9565b6040516370a0823160e01b815230600482015281906001600160a01b038416906370a0823190602401602060405180830381865afa158015611004573d6000803e3d6000fd5b505050506040513d601f19601f8201168201806040525081019061102891906126b7565b10156110765760405162461bcd60e51b815260206004820152601a60248201527f496e73756666696369656e7420746f6b656e2062616c616e63650000000000006044820152606401610288565b60405163a9059cbb60e01b8152336004820152602481018290526001600160a01b0383169063a9059cbb906044016020604051808303816000875af11580156110c3573d6000803e3d6000fd5b505050506040513d601f19601f820116820180604052508101906110e7919061269a565b505b6040518181526001600160a01b0383169033907ff24ef89f38eadc1bde50701ad6e4d6d11a2dc24f7cf834a486991f38833285049060200160405180910390a35050565b60606004805461082890612637565b6000338161114a82866113df565b9050838110156111aa5760405162461bcd60e51b815260206004820152602560248201527f45524332303a2064656372656173656420616c6c6f77616e63652062656c6f77604482015264207a65726f60d81b6064820152608401610288565b6108ef828686840361185e565b6000336108b9818585611c86565b6111cd611e42565b6001600160a01b038216600081815260076020908152604091829020805460ff191685151590811790915591519182527fef81a9943b96c8df4ef243401c9bf5159146166211356898b52d382086168d92910160405180910390a25050565b611234611e42565b6103e883111561127d5760405162461bcd60e51b8152602060048201526014602482015273088cae0dee6d2e840cccaca40e8dede40d0d2ced60631b6044820152606401610288565b6103e88211156112cf5760405162461bcd60e51b815260206004820152601760248201527f5769746864726177616c2066656520746f6f20686967680000000000000000006044820152606401610288565b6103e88111156113215760405162461bcd60e51b815260206004820152601860248201527f506572666f726d616e63652066656520746f6f206869676800000000000000006044820152606401610288565b600c92909255600d55600e55565b611337611e42565b6001600160a01b03811661138d5760405162461bcd60e51b815260206004820152601860248201527f496e76616c6964207374726174656779206164647265737300000000000000006044820152606401610288565b600b80546001600160a01b038381166001600160a01b0319831681179093556040519116919082907fe4cec16b1a7e6b7979e923da619a8b1e5fd0f0fb6e5c1cf647f350430ee61ca990600090a35050565b6001600160a01b03918216600090815260016020908152604080832093909416825291909152205490565b611412611e42565b6001600160a01b0381166114775760405162461bcd60e51b815260206004820152602660248201527f4f776e61626c653a206e6577206f776e657220697320746865207a65726f206160448201526564647265737360d01b6064820152608401610288565b6114808161207f565b50565b61148b611ef4565b611493611f4d565b6001600160a01b038216600090815260076020526040902054829060ff166114f55760405162461bcd60e51b8152602060048201526015602482015274151bdad95b881b9bdd081dda1a5d195b1a5cdd1959605a1b6044820152606401610288565b81600081116115465760405162461bcd60e51b815260206004820152601d60248201527f416d6f756e74206d7573742062652067726561746572207468616e20300000006044820152606401610288565b3360009081526008602090815260408083206001600160a01b03881684529091529020548311156115af5760405162461bcd60e51b8152602060048201526013602482015272496e73756666696369656e742073686172657360681b6044820152606401610288565b6001600160a01b0384166000908152600a60205260409020548311156116175760405162461bcd60e51b815260206004820152601960248201527f496e73756666696369656e7420746f74616c20736861726573000000000000006044820152606401610288565b60006116238585610e05565b9050600081116116755760405162461bcd60e51b815260206004820152601d60248201527f417373657473206d7573742062652067726561746572207468616e20300000006044820152606401610288565b600d54600090156116aa5761169b612710610977600d5485611e2a90919063ffffffff16565b90506116a78282611fa8565b91505b3360009081526008602090815260408083206001600160a01b038a1684529091529020546116d89086611fa8565b3360009081526008602090815260408083206001600160a01b038b1684529091529020556117286117098383611fb4565b6001600160a01b03881660009081526009602052604090205490611fa8565b6001600160a01b038716600090815260096020908152604080832093909355600a905220546117579086611fa8565b6001600160a01b0387166000908152600a602052604090205561177a338661215f565b61178386611f93565b1561179757611792338361228e565b61180a565b60405163a9059cbb60e01b8152336004820152602481018390526001600160a01b0387169063a9059cbb906044016020604051808303816000875af11580156117e4573d6000803e3d6000fd5b505050506040513d601f19601f82011682018060405250810190611808919061269a565b505b60408051868152602081018490526001600160a01b0388169133917ff341246adaac6f497bc2a656f546ab9e182111d630394f0c57c710a59a2cb567910160405180910390a350505050610e016001600555565b6001600160a01b0383166118c05760405162461bcd60e51b8152602060048201526024808201527f45524332303a20617070726f76652066726f6d20746865207a65726f206164646044820152637265737360e01b6064820152608401610288565b6001600160a01b0382166119215760405162461bcd60e51b815260206004820152602260248201527f45524332303a20617070726f766520746f20746865207a65726f206164647265604482015261737360f01b6064820152608401610288565b6001600160a01b0383811660008181526001602090815260408083209487168084529482529182902085905590518481527f8c5be1e5ebec7d5bd14f71427d1e84f3dd0314c0f7b2291e5b200ac8c7c3b92591015b60405180910390a3505050565b61198b6123a7565b73874069fa1eb16d44d622f2e0ca25eea172369bc0196001600160a01b03831601611a55575050604080516101008101825273874069fa1eb16d44d622f2e0ca25eea172369bc1815281518083018352600481526318d554d160e21b6020828101919091528083019190915282518084018452600b81526a21b2b637902237b63630b960a91b9181019190915291810191909152601260608201526000608082015269d3c21bcecceda100000060a0820152670de0b6b3a764000060c0820152600160e082015290565b7341f4c5e67e9ecf8c2c53d9b25c4c5b4f8c26b6e7196001600160a01b03831601611b1257505060408051610100810182527341f4c5e67e9ecf8c2c53d9b25c4c5b4f8c26b6e881528151808301835260048152635553444360e01b602082810191909152808301919091528251808401845260088152672aa9a21021b7b4b760c11b9181019190915291810191909152600660608201526000608082015264e8d4a5100060a0820152620f424060c0820152600160e082015290565b6001600160a01b038216611bbf5760405180610100016040528060006001600160a01b031681526020016040518060400160405280600481526020016343454c4f60e01b81525081526020016040518060400160405280600481526020016343656c6f60e01b8152508152602001601260ff16815260200160011515815260200169152d02c7e14af68000008152602001670de0b6b3a76400008152602001600115158152509050919050565b60405162461bcd60e51b815260206004820152601e60248201527f546f6b656e436f6e6669673a20556e737570706f7274656420746f6b656e00006044820152606401610288565b919050565b6000611c1884846113df565b90506000198114611c805781811015611c735760405162461bcd60e51b815260206004820152601d60248201527f45524332303a20696e73756666696369656e7420616c6c6f77616e63650000006044820152606401610288565b611c80848484840361185e565b50505050565b6001600160a01b038316611cea5760405162461bcd60e51b815260206004820152602560248201527f45524332303a207472616e736665722066726f6d20746865207a65726f206164604482015264647265737360d81b6064820152608401610288565b6001600160a01b038216611d4c5760405162461bcd60e51b815260206004820152602360248201527f45524332303a207472616e7366657220746f20746865207a65726f206164647260448201526265737360e81b6064820152608401610288565b6001600160a01b03831660009081526020819052604090205481811015611dc45760405162461bcd60e51b815260206004820152602660248201527f45524332303a207472616e7366657220616d6f756e7420657863656564732062604482015265616c616e636560d01b6064820152608401610288565b6001600160a01b03848116600081815260208181526040808320878703905593871680835291849020805487019055925185815290927fddf252ad1be2c89b69c2b068fc378daa952ba7f163c4a11628f55a4df523b3ef910160405180910390a3611c80565b600061097d82846126d0565b600061097d82846126e7565b6006546001600160a01b036101009091041633146109945760405162461bcd60e51b815260206004820181905260248201527f4f776e61626c653a2063616c6c6572206973206e6f7420746865206f776e65726044820152606401610288565b611eaa612116565b6006805460ff191690557f5db9ee0a495bf2e6ff9c91a7834c1ba4fdd244a5e8aa4e537bd38aeae4b073aa335b6040516001600160a01b03909116815260200160405180910390a1565b600260055403611f465760405162461bcd60e51b815260206004820152601f60248201527f5265656e7472616e637947756172643a207265656e7472616e742063616c6c006044820152606401610288565b6002600555565b60065460ff16156109945760405162461bcd60e51b815260206004820152601060248201526f14185d5cd8589b194e881c185d5cd95960821b6044820152606401610288565b6000611f9e82611983565b6080015192915050565b600061097d8284612709565b600061097d8284612687565b6001600160a01b0382166120165760405162461bcd60e51b815260206004820152601f60248201527f45524332303a206d696e7420746f20746865207a65726f2061646472657373006044820152606401610288565b80600260008282546120289190612687565b90915550506001600160a01b038216600081815260208181526040808320805486019055518481527fddf252ad1be2c89b69c2b068fc378daa952ba7f163c4a11628f55a4df523b3ef910160405180910390a35050565b600680546001600160a01b03838116610100818102610100600160a81b031985161790945560405193909204169182907f8be0079c531659141344cd1fd0a4f28419497f9722a3daafe3b4186f6b6457e090600090a35050565b6120e1611f4d565b6006805460ff191660011790557f62e78cea01bee320cd4e420270b5ea74000d11b0c9f74754ebdbfc544b05a258611ed73390565b60065460ff166109945760405162461bcd60e51b815260206004820152601460248201527314185d5cd8589b194e881b9bdd081c185d5cd95960621b6044820152606401610288565b6001600160a01b0382166121bf5760405162461bcd60e51b815260206004820152602160248201527f45524332303a206275726e2066726f6d20746865207a65726f206164647265736044820152607360f81b6064820152608401610288565b6001600160a01b038216600090815260208190526040902054818110156122335760405162461bcd60e51b815260206004820152602260248201527f45524332303a206275726e20616d6f756e7420657863656564732062616c616e604482015261636560f01b6064820152608401610288565b6001600160a01b0383166000818152602081815260408083208686039055600280548790039055518581529192917fddf252ad1be2c89b69c2b068fc378daa952ba7f163c4a11628f55a4df523b3ef9101611976565b505050565b804710156122de5760405162461bcd60e51b815260206004820152601d60248201527f416464726573733a20696e73756666696369656e742062616c616e63650000006044820152606401610288565b6000826001600160a01b03168260405160006040518083038185875af1925050503d806000811461232b576040519150601f19603f3d011682016040523d82523d6000602084013e612330565b606091505b50509050806122895760405162461bcd60e51b815260206004820152603a60248201527f416464726573733a20756e61626c6520746f2073656e642076616c75652c207260448201527f6563697069656e74206d617920686176652072657665727465640000000000006064820152608401610288565b60405180610100016040528060006001600160a01b031681526020016060815260200160608152602001600060ff16815260200160001515815260200160008152602001600081526020016000151581525090565b6000815180845260005b8181101561242257602081850181015186830182015201612406565b506000602082860101526020601f19601f83011685010191505092915050565b60208152600061097d60208301846123fc565b80356001600160a01b0381168114611c0757600080fd5b6000806040838503121561247f57600080fd5b61248883612455565b946020939093013593505050565b6000602082840312156124a857600080fd5b61097d82612455565b602080825282516001600160a01b03168282015282015161010060408301819052600091906124e46101208501836123fc565b91506040850151601f1985840301606086015261250183826123fc565b9250506060850151612518608086018260ff169052565b50608085015180151560a08601525060a085015160c085015260c085015160e085015260e085015161254d8286018215159052565b5090949350505050565b60008060006060848603121561256c57600080fd5b61257584612455565b925061258360208501612455565b9150604084013590509250925092565b600080604083850312156125a657600080fd5b6125af83612455565b91506125bd60208401612455565b90509250929050565b801515811461148057600080fd5b600080604083850312156125e757600080fd5b6125f083612455565b91506020830135612600816125c6565b809150509250929050565b60008060006060848603121561262057600080fd5b505081359360208301359350604090920135919050565b600181811c9082168061264b57607f821691505b60208210810361266b57634e487b7160e01b600052602260045260246000fd5b50919050565b634e487b7160e01b600052601160045260246000fd5b808201808211156108bf576108bf612671565b6000602082840312156126ac57600080fd5b815161097d816125c6565b6000602082840312156126c957600080fd5b5051919050565b80820281158282048414176108bf576108bf612671565b60008261270457634e487b7160e01b600052601260045260246000fd5b500490565b818103818111156108bf576108bf61267156fea264697066735822122012be0d5066a9141e9c2d32d66bde291dc64531b8b9e192f61e064894067bd47564736f6c63430008130033",
  "linkReferences": {},
  "deployedLinkReferences": {}
}